{
  "_format": "hh-sol-artifact-1",
  "contractName": "Medicalsys",
  "sourceName": "contracts/Medicalsys.sol",
  "abi": [
    {
      "inputs": [],
      "stateMutability": "nonpayable",
      "type": "constructor"
    },
    {
      "inputs": [
        {
          "internalType": "string",
          "name": "name",
          "type": "string"
        },
        {
          "internalType": "string",
          "name": "batchNumber",
          "type": "string"
        },
        {
          "internalType": "uint256",
          "name": "expiryDurationInDays",
          "type": "uint256"
        }
      ],
      "name": "addProduct",
      "outputs": [],
      "stateMutability": "payable",
      "type": "function"
    },
    {
      "inputs": [],
      "name": "getMemos",
      "outputs": [
        {
          "components": [
            {
              "internalType": "string",
              "name": "name",
              "type": "string"
            },
            {
              "internalType": "string",
              "name": "batchNumber",
              "type": "string"
            },
            {
              "internalType": "uint256",
              "name": "manufactureDate",
              "type": "uint256"
            },
            {
              "internalType": "uint256",
              "name": "expiryDate",
              "type": "uint256"
            },
            {
              "internalType": "address",
              "name": "from",
              "type": "address"
            }
          ],
          "internalType": "struct Medicalsys.Manufacturer[]",
          "name": "",
          "type": "tuple[]"
        }
      ],
      "stateMutability": "view",
      "type": "function"
    }
  ],
  "bytecode": "0x608060405234801561001057600080fd5b5033600160006101000a81548173ffffffffffffffffffffffffffffffffffffffff021916908373ffffffffffffffffffffffffffffffffffffffff160217905550610c93806100616000396000f3fe6080604052600436106100295760003560e01c8063865c51721461002e578063f28ea1c114610059575b600080fd5b34801561003a57600080fd5b50610043610075565b60405161005091906106dc565b60405180910390f35b610073600480360381019061006e9190610799565b610262565b005b60606000805480602002602001604051908101604052809291908181526020016000905b8282101561025957838290600052602060002090600502016040518060a00160405290816000820180546100cc9061085d565b80601f01602080910402602001604051908101604052809291908181526020018280546100f89061085d565b80156101455780601f1061011a57610100808354040283529160200191610145565b820191906000526020600020905b81548152906001019060200180831161012857829003601f168201915b5050505050815260200160018201805461015e9061085d565b80601f016020809104026020016040519081016040528092919081815260200182805461018a9061085d565b80156101d75780601f106101ac576101008083540402835291602001916101d7565b820191906000526020600020905b8154815290600101906020018083116101ba57829003601f168201915b5050505050815260200160028201548152602001600382015481526020016004820160009054906101000a900473ffffffffffffffffffffffffffffffffffffffff1673ffffffffffffffffffffffffffffffffffffffff1673ffffffffffffffffffffffffffffffffffffffff168152505081526020019060010190610099565b50505050905090565b600034116102a5576040517f08c379a000000000000000000000000000000000000000000000000000000000815260040161029c906108eb565b60405180910390fd5b600160009054906101000a900473ffffffffffffffffffffffffffffffffffffffff1673ffffffffffffffffffffffffffffffffffffffff166108fc349081150290604051600060405180830381858888f1935050505015801561030d573d6000803e3d6000fd5b50600042905060006201518083610324919061093a565b8261032f919061097c565b905060006040518060a0016040528089898080601f016020809104026020016040519081016040528093929190818152602001838380828437600081840152601f19601f82011690508083019250505050505050815260200187878080601f016020809104026020016040519081016040528093929190818152602001838380828437600081840152601f19601f8201169050808301925050505050505081526020018481526020018381526020013373ffffffffffffffffffffffffffffffffffffffff16815250908060018154018082558091505060019003906000526020600020906005020160009091909190915060008201518160000190816104369190610b8b565b50602082015181600101908161044c9190610b8b565b50604082015181600201556060820151816003015560808201518160040160006101000a81548173ffffffffffffffffffffffffffffffffffffffff021916908373ffffffffffffffffffffffffffffffffffffffff160217905550505050505050505050565b600081519050919050565b600082825260208201905092915050565b6000819050602082019050919050565b600081519050919050565b600082825260208201905092915050565b60005b838110156105195780820151818401526020810190506104fe565b60008484015250505050565b6000601f19601f8301169050919050565b6000610541826104df565b61054b81856104ea565b935061055b8185602086016104fb565b61056481610525565b840191505092915050565b6000819050919050565b6105828161056f565b82525050565b600073ffffffffffffffffffffffffffffffffffffffff82169050919050565b60006105b382610588565b9050919050565b6105c3816105a8565b82525050565b600060a08301600083015184820360008601526105e68282610536565b915050602083015184820360208601526106008282610536565b91505060408301516106156040860182610579565b5060608301516106286060860182610579565b50608083015161063b60808601826105ba565b508091505092915050565b600061065283836105c9565b905092915050565b6000602082019050919050565b6000610672826104b3565b61067c81856104be565b93508360208202850161068e856104cf565b8060005b858110156106ca57848403895281516106ab8582610646565b94506106b68361065a565b925060208a01995050600181019050610692565b50829750879550505050505092915050565b600060208201905081810360008301526106f68184610667565b905092915050565b600080fd5b600080fd5b600080fd5b600080fd5b600080fd5b60008083601f84011261072d5761072c610708565b5b8235905067ffffffffffffffff81111561074a5761074961070d565b5b60208301915083600182028301111561076657610765610712565b5b9250929050565b6107768161056f565b811461078157600080fd5b50565b6000813590506107938161076d565b92915050565b6000806000806000606086880312156107b5576107b46106fe565b5b600086013567ffffffffffffffff8111156107d3576107d2610703565b5b6107df88828901610717565b9550955050602086013567ffffffffffffffff81111561080257610801610703565b5b61080e88828901610717565b9350935050604061082188828901610784565b9150509295509295909350565b7f4e487b7100000000000000000000000000000000000000000000000000000000600052602260045260246000fd5b6000600282049050600182168061087557607f821691505b6020821081036108885761088761082e565b5b50919050565b600082825260208201905092915050565b7f506c6561736520706179206d6f7265207468616e203020657468657200000000600082015250565b60006108d5601c8361088e565b91506108e08261089f565b602082019050919050565b60006020820190508181036000830152610904816108c8565b9050919050565b7f4e487b7100000000000000000000000000000000000000000000000000000000600052601160045260246000fd5b60006109458261056f565b91506109508361056f565b925082820261095e8161056f565b915082820484148315176109755761097461090b565b5b5092915050565b60006109878261056f565b91506109928361056f565b92508282019050808211156109aa576109a961090b565b5b92915050565b7f4e487b7100000000000000000000000000000000000000000000000000000000600052604160045260246000fd5b60008190508160005260206000209050919050565b60006020601f8301049050919050565b600082821b905092915050565b600060088302610a417fffffffffffffffffffffffffffffffffffffffffffffffffffffffffffffffff82610a04565b610a4b8683610a04565b95508019841693508086168417925050509392505050565b6000819050919050565b6000610a88610a83610a7e8461056f565b610a63565b61056f565b9050919050565b6000819050919050565b610aa283610a6d565b610ab6610aae82610a8f565b848454610a11565b825550505050565b600090565b610acb610abe565b610ad6818484610a99565b505050565b5b81811015610afa57610aef600082610ac3565b600181019050610adc565b5050565b601f821115610b3f57610b10816109df565b610b19846109f4565b81016020851015610b28578190505b610b3c610b34856109f4565b830182610adb565b50505b505050565b600082821c905092915050565b6000610b6260001984600802610b44565b1980831691505092915050565b6000610b7b8383610b51565b9150826002028217905092915050565b610b94826104df565b67ffffffffffffffff811115610bad57610bac6109b0565b5b610bb7825461085d565b610bc2828285610afe565b600060209050601f831160018114610bf55760008415610be3578287015190505b610bed8582610b6f565b865550610c55565b601f198416610c03866109df565b60005b82811015610c2b57848901518255600182019150602085019450602081019050610c06565b86831015610c485784890151610c44601f891682610b51565b8355505b6001600288020188555050505b50505050505056fea2646970667358221220c03b32d658bf847fd79301c0b7294a5bed744c9cb140dbf5d472075747be27cf64736f6c63430008180033",
  "linkReferences": {},
  "deployedLinkReferences": {}
}